{
  "contractName": "GoldToken",
  "abi": [
    {
      "inputs": [],
      "stateMutability": "nonpayable",
      "type": "constructor"
    },
    {
      "anonymous": false,
      "inputs": [
        {
          "indexed": true,
          "internalType": "address",
          "name": "owner",
          "type": "address"
        },
        {
          "indexed": true,
          "internalType": "address",
          "name": "spender",
          "type": "address"
        },
        {
          "indexed": false,
          "internalType": "uint256",
          "name": "value",
          "type": "uint256"
        }
      ],
      "name": "Approval",
      "type": "event"
    },
    {
      "anonymous": false,
      "inputs": [
        {
          "indexed": true,
          "internalType": "address",
          "name": "from",
          "type": "address"
        },
        {
          "indexed": true,
          "internalType": "address",
          "name": "to",
          "type": "address"
        },
        {
          "indexed": false,
          "internalType": "uint256",
          "name": "value",
          "type": "uint256"
        }
      ],
      "name": "Transfer",
      "type": "event"
    },
    {
      "inputs": [
        {
          "internalType": "address",
          "name": "owner",
          "type": "address"
        },
        {
          "internalType": "address",
          "name": "spender",
          "type": "address"
        }
      ],
      "name": "allowance",
      "outputs": [
        {
          "internalType": "uint256",
          "name": "",
          "type": "uint256"
        }
      ],
      "stateMutability": "view",
      "type": "function",
      "constant": true
    },
    {
      "inputs": [
        {
          "internalType": "address",
          "name": "spender",
          "type": "address"
        },
        {
          "internalType": "uint256",
          "name": "amount",
          "type": "uint256"
        }
      ],
      "name": "approve",
      "outputs": [
        {
          "internalType": "bool",
          "name": "",
          "type": "bool"
        }
      ],
      "stateMutability": "nonpayable",
      "type": "function"
    },
    {
      "inputs": [
        {
          "internalType": "address",
          "name": "account",
          "type": "address"
        }
      ],
      "name": "balanceOf",
      "outputs": [
        {
          "internalType": "uint256",
          "name": "",
          "type": "uint256"
        }
      ],
      "stateMutability": "view",
      "type": "function",
      "constant": true
    },
    {
      "inputs": [],
      "name": "decimals",
      "outputs": [
        {
          "internalType": "uint8",
          "name": "",
          "type": "uint8"
        }
      ],
      "stateMutability": "view",
      "type": "function",
      "constant": true
    },
    {
      "inputs": [
        {
          "internalType": "address",
          "name": "spender",
          "type": "address"
        },
        {
          "internalType": "uint256",
          "name": "subtractedValue",
          "type": "uint256"
        }
      ],
      "name": "decreaseAllowance",
      "outputs": [
        {
          "internalType": "bool",
          "name": "",
          "type": "bool"
        }
      ],
      "stateMutability": "nonpayable",
      "type": "function"
    },
    {
      "inputs": [
        {
          "internalType": "address",
          "name": "spender",
          "type": "address"
        },
        {
          "internalType": "uint256",
          "name": "addedValue",
          "type": "uint256"
        }
      ],
      "name": "increaseAllowance",
      "outputs": [
        {
          "internalType": "bool",
          "name": "",
          "type": "bool"
        }
      ],
      "stateMutability": "nonpayable",
      "type": "function"
    },
    {
      "inputs": [],
      "name": "name",
      "outputs": [
        {
          "internalType": "string",
          "name": "",
          "type": "string"
        }
      ],
      "stateMutability": "view",
      "type": "function",
      "constant": true
    },
    {
      "inputs": [],
      "name": "owner",
      "outputs": [
        {
          "internalType": "address",
          "name": "",
          "type": "address"
        }
      ],
      "stateMutability": "view",
      "type": "function",
      "constant": true
    },
    {
      "inputs": [],
      "name": "symbol",
      "outputs": [
        {
          "internalType": "string",
          "name": "",
          "type": "string"
        }
      ],
      "stateMutability": "view",
      "type": "function",
      "constant": true
    },
    {
      "inputs": [],
      "name": "totalSupply",
      "outputs": [
        {
          "internalType": "uint256",
          "name": "",
          "type": "uint256"
        }
      ],
      "stateMutability": "view",
      "type": "function",
      "constant": true
    },
    {
      "inputs": [
        {
          "internalType": "address",
          "name": "recipient",
          "type": "address"
        },
        {
          "internalType": "uint256",
          "name": "amount",
          "type": "uint256"
        }
      ],
      "name": "transfer",
      "outputs": [
        {
          "internalType": "bool",
          "name": "",
          "type": "bool"
        }
      ],
      "stateMutability": "nonpayable",
      "type": "function"
    },
    {
      "inputs": [
        {
          "internalType": "address",
          "name": "sender",
          "type": "address"
        },
        {
          "internalType": "address",
          "name": "recipient",
          "type": "address"
        },
        {
          "internalType": "uint256",
          "name": "amount",
          "type": "uint256"
        }
      ],
      "name": "transferFrom",
      "outputs": [
        {
          "internalType": "bool",
          "name": "",
          "type": "bool"
        }
      ],
      "stateMutability": "nonpayable",
      "type": "function"
    },
    {
      "inputs": [],
      "name": "getLatestGoldPrice",
      "outputs": [
        {
          "internalType": "uint256",
          "name": "",
          "type": "uint256"
        }
      ],
      "stateMutability": "view",
      "type": "function",
      "constant": true
    },
    {
      "inputs": [],
      "name": "getLatestGoldUsdPrice",
      "outputs": [
        {
          "internalType": "uint256",
          "name": "",
          "type": "uint256"
        }
      ],
      "stateMutability": "view",
      "type": "function",
      "constant": true
    },
    {
      "inputs": [],
      "name": "getLatestEthUsdPrice",
      "outputs": [
        {
          "internalType": "uint256",
          "name": "",
          "type": "uint256"
        }
      ],
      "stateMutability": "view",
      "type": "function",
      "constant": true
    },
    {
      "inputs": [
        {
          "internalType": "uint256",
          "name": "_sepoliaEthAmount",
          "type": "uint256"
        }
      ],
      "name": "calculateGoldTokenAmount",
      "outputs": [
        {
          "internalType": "uint256",
          "name": "",
          "type": "uint256"
        }
      ],
      "stateMutability": "view",
      "type": "function",
      "constant": true
    },
    {
      "inputs": [],
      "name": "buyGoldTokens",
      "outputs": [],
      "stateMutability": "payable",
      "type": "function",
      "payable": true
    },
    {
      "inputs": [
        {
          "internalType": "address",
          "name": "to",
          "type": "address"
        },
        {
          "internalType": "uint256",
          "name": "_amount",
          "type": "uint256"
        }
      ],
      "name": "mint",
      "outputs": [],
      "stateMutability": "nonpayable",
      "type": "function"
    },
    {
      "inputs": [],
      "name": "contractBalance",
      "outputs": [
        {
          "internalType": "uint256",
          "name": "",
          "type": "uint256"
        }
      ],
      "stateMutability": "view",
      "type": "function",
      "constant": true
    },
    {
      "inputs": [
        {
          "internalType": "uint256",
          "name": "_goldTokenAmount",
          "type": "uint256"
        }
      ],
      "name": "calculateSellGoldToken",
      "outputs": [
        {
          "internalType": "uint256",
          "name": "",
          "type": "uint256"
        }
      ],
      "stateMutability": "view",
      "type": "function",
      "constant": true
    },
    {
      "inputs": [
        {
          "internalType": "uint256",
          "name": "_goldTokenAmount",
          "type": "uint256"
        }
      ],
      "name": "sellGoldToken",
      "outputs": [],
      "stateMutability": "payable",
      "type": "function",
      "payable": true
    }
  ],
  "bytecode": "0x60806040523480156200001157600080fd5b506040518060400160405280600a81526020017f476f6c6420546f6b656e000000000000000000000000000000000000000000008152506040518060400160405280600381526020017f474c44000000000000000000000000000000000000000000000000000000000081525081600390816200008f91906200040f565b508060049081620000a191906200040f565b50505073c5981f461d74c46eb4b0cf3f4ec79f025573b0ea600560006101000a81548173ffffffffffffffffffffffffffffffffffffffff021916908373ffffffffffffffffffffffffffffffffffffffff16021790555073694aa1769357215de4fac081bf1f309adc325306600660006101000a81548173ffffffffffffffffffffffffffffffffffffffff021916908373ffffffffffffffffffffffffffffffffffffffff16021790555033600760006101000a81548173ffffffffffffffffffffffffffffffffffffffff021916908373ffffffffffffffffffffffffffffffffffffffff160217905550620004f6565b600081519050919050565b7f4e487b7100000000000000000000000000000000000000000000000000000000600052604160045260246000fd5b7f4e487b7100000000000000000000000000000000000000000000000000000000600052602260045260246000fd5b600060028204905060018216806200021757607f821691505b6020821081036200022d576200022c620001cf565b5b50919050565b60008190508160005260206000209050919050565b60006020601f8301049050919050565b600082821b905092915050565b600060088302620002977fffffffffffffffffffffffffffffffffffffffffffffffffffffffffffffffff8262000258565b620002a3868362000258565b95508019841693508086168417925050509392505050565b6000819050919050565b6000819050919050565b6000620002f0620002ea620002e484620002bb565b620002c5565b620002bb565b9050919050565b6000819050919050565b6200030c83620002cf565b620003246200031b82620002f7565b84845462000265565b825550505050565b600090565b6200033b6200032c565b6200034881848462000301565b505050565b5b8181101562000370576200036460008262000331565b6001810190506200034e565b5050565b601f821115620003bf57620003898162000233565b620003948462000248565b81016020851015620003a4578190505b620003bc620003b38562000248565b8301826200034d565b50505b505050565b600082821c905092915050565b6000620003e460001984600802620003c4565b1980831691505092915050565b6000620003ff8383620003d1565b9150826002028217905092915050565b6200041a8262000195565b67ffffffffffffffff811115620004365762000435620001a0565b5b620004428254620001fe565b6200044f82828562000374565b600060209050601f83116001811462000487576000841562000472578287015190505b6200047e8582620003f1565b865550620004ee565b601f198416620004978662000233565b60005b82811015620004c1578489015182556001820191506020850194506020810190506200049a565b86831015620004e15784890151620004dd601f891682620003d1565b8355505b6001600288020188555050505b505050505050565b6122d980620005066000396000f3fe60806040526004361061012a5760003560e01c806361c75a15116100ab57806395d89b411161006f57806395d89b411461040f578063a457c2d71461043a578063a9059cbb14610477578063adf25888146104b4578063dd62ed3e146104be578063e5ab86fb146104fb5761012a565b806361c75a151461032357806370a082311461036057806389c2dd931461039d5780638b7afe2e146103b95780638da5cb5b146103e45761012a565b806330214599116100f2578063302145991461022a578063313ce5671461025557806339509351146102805780633f6e2c89146102bd57806340c10f19146102fa5761012a565b806306fdde031461012f578063095ea7b31461015a57806318160ddd1461019757806323b872dd146101c25780632f7e177e146101ff575b600080fd5b34801561013b57600080fd5b50610144610526565b60405161015191906116cd565b60405180910390f35b34801561016657600080fd5b50610181600480360381019061017c9190611788565b6105b8565b60405161018e91906117e3565b60405180910390f35b3480156101a357600080fd5b506101ac6105d6565b6040516101b9919061180d565b60405180910390f35b3480156101ce57600080fd5b506101e960048036038101906101e49190611828565b6105e0565b6040516101f691906117e3565b60405180910390f35b34801561020b57600080fd5b506102146106d8565b604051610221919061180d565b60405180910390f35b34801561023657600080fd5b5061023f610831565b60405161024c919061180d565b60405180910390f35b34801561026157600080fd5b5061026a6108d2565b6040516102779190611897565b60405180910390f35b34801561028c57600080fd5b506102a760048036038101906102a29190611788565b6108db565b6040516102b491906117e3565b60405180910390f35b3480156102c957600080fd5b506102e460048036038101906102df91906118b2565b610987565b6040516102f1919061180d565b60405180910390f35b34801561030657600080fd5b50610321600480360381019061031c9190611788565b6109bb565b005b34801561032f57600080fd5b5061034a600480360381019061034591906118b2565b610a59565b604051610357919061180d565b60405180910390f35b34801561036c57600080fd5b50610387600480360381019061038291906118df565b610a93565b604051610394919061180d565b60405180910390f35b6103b760048036038101906103b291906118b2565b610adb565b005b3480156103c557600080fd5b506103ce610ba3565b6040516103db919061180d565b60405180910390f35b3480156103f057600080fd5b506103f9610bab565b604051610406919061191b565b60405180910390f35b34801561041b57600080fd5b50610424610bd1565b60405161043191906116cd565b60405180910390f35b34801561044657600080fd5b50610461600480360381019061045c9190611788565b610c63565b60405161046e91906117e3565b60405180910390f35b34801561048357600080fd5b5061049e60048036038101906104999190611788565b610d4e565b6040516104ab91906117e3565b60405180910390f35b6104bc610d6c565b005b3480156104ca57600080fd5b506104e560048036038101906104e09190611936565b610d86565b6040516104f2919061180d565b60405180910390f35b34801561050757600080fd5b50610510610e0d565b60405161051d919061180d565b60405180910390f35b606060038054610535906119a5565b80601f0160208091040260200160405190810160405280929190818152602001828054610561906119a5565b80156105ae5780601f10610583576101008083540402835291602001916105ae565b820191906000526020600020905b81548152906001019060200180831161059157829003601f168201915b5050505050905090565b60006105cc6105c5610eae565b8484610eb6565b6001905092915050565b6000600254905090565b60006105ed84848461107f565b6000600160008673ffffffffffffffffffffffffffffffffffffffff1673ffffffffffffffffffffffffffffffffffffffff1681526020019081526020016000206000610638610eae565b73ffffffffffffffffffffffffffffffffffffffff1673ffffffffffffffffffffffffffffffffffffffff168152602001908152602001600020549050828110156106b8576040517f08c379a00000000000000000000000000000000000000000000000000000000081526004016106af90611a48565b60405180910390fd5b6106cc856106c4610eae565b858403610eb6565b60019150509392505050565b600080600560009054906101000a900473ffffffffffffffffffffffffffffffffffffffff1673ffffffffffffffffffffffffffffffffffffffff1663feaf968c6040518163ffffffff1660e01b815260040160a060405180830381865afa158015610748573d6000803e3d6000fd5b505050506040513d601f19601f8201168201806040525081019061076c9190611af5565b5050509150506000600660009054906101000a900473ffffffffffffffffffffffffffffffffffffffff1673ffffffffffffffffffffffffffffffffffffffff1663feaf968c6040518163ffffffff1660e01b815260040160a060405180830381865afa1580156107e1573d6000803e3d6000fd5b505050506040513d601f19601f820116820180604052508101906108059190611af5565b50505091505080670de0b6b3a7640000836108209190611b9f565b61082a9190611c10565b9250505090565b600080600660009054906101000a900473ffffffffffffffffffffffffffffffffffffffff1673ffffffffffffffffffffffffffffffffffffffff1663feaf968c6040518163ffffffff1660e01b815260040160a060405180830381865afa1580156108a1573d6000803e3d6000fd5b505050506040513d601f19601f820116820180604052508101906108c59190611af5565b5050509150508091505090565b60006012905090565b600061097d6108e8610eae565b8484600160006108f6610eae565b73ffffffffffffffffffffffffffffffffffffffff1673ffffffffffffffffffffffffffffffffffffffff16815260200190815260200160002060008873ffffffffffffffffffffffffffffffffffffffff1673ffffffffffffffffffffffffffffffffffffffff168152602001908152602001600020546109789190611c41565b610eb6565b6001905092915050565b6000806109926106d8565b905080670de0b6b3a7640000846109a99190611b9f565b6109b39190611c10565b915050919050565b600760009054906101000a900473ffffffffffffffffffffffffffffffffffffffff1673ffffffffffffffffffffffffffffffffffffffff163373ffffffffffffffffffffffffffffffffffffffff1614610a4b576040517f08c379a0000000000000000000000000000000000000000000000000000000008152600401610a4290611cc1565b60405180910390fd5b610a5582826112fe565b5050565b600080610a646106d8565b90506000670de0b6b3a76400008285610a7d9190611b9f565b610a879190611c10565b90508092505050919050565b60008060008373ffffffffffffffffffffffffffffffffffffffff1673ffffffffffffffffffffffffffffffffffffffff168152602001908152602001600020549050919050565b6000610ae56106d8565b90506000670de0b6b3a76400008284610afe9190611b9f565b610b089190611c10565b905080471015610b4d576040517f08c379a0000000000000000000000000000000000000000000000000000000008152600401610b4490611d53565b60405180910390fd5b610b57338461145d565b3373ffffffffffffffffffffffffffffffffffffffff166108fc829081150290604051600060405180830381858888f19350505050158015610b9d573d6000803e3d6000fd5b50505050565b600047905090565b600760009054906101000a900473ffffffffffffffffffffffffffffffffffffffff1681565b606060048054610be0906119a5565b80601f0160208091040260200160405190810160405280929190818152602001828054610c0c906119a5565b8015610c595780601f10610c2e57610100808354040283529160200191610c59565b820191906000526020600020905b815481529060010190602001808311610c3c57829003601f168201915b5050505050905090565b60008060016000610c72610eae565b73ffffffffffffffffffffffffffffffffffffffff1673ffffffffffffffffffffffffffffffffffffffff16815260200190815260200160002060008573ffffffffffffffffffffffffffffffffffffffff1673ffffffffffffffffffffffffffffffffffffffff16815260200190815260200160002054905082811015610d2f576040517f08c379a0000000000000000000000000000000000000000000000000000000008152600401610d2690611de5565b60405180910390fd5b610d43610d3a610eae565b85858403610eb6565b600191505092915050565b6000610d62610d5b610eae565b848461107f565b6001905092915050565b6000610d7734610987565b9050610d8333826112fe565b50565b6000600160008473ffffffffffffffffffffffffffffffffffffffff1673ffffffffffffffffffffffffffffffffffffffff16815260200190815260200160002060008373ffffffffffffffffffffffffffffffffffffffff1673ffffffffffffffffffffffffffffffffffffffff16815260200190815260200160002054905092915050565b600080600560009054906101000a900473ffffffffffffffffffffffffffffffffffffffff1673ffffffffffffffffffffffffffffffffffffffff1663feaf968c6040518163ffffffff1660e01b815260040160a060405180830381865afa158015610e7d573d6000803e3d6000fd5b505050506040513d601f19601f82011682018060405250810190610ea19190611af5565b5050509150508091505090565b600033905090565b600073ffffffffffffffffffffffffffffffffffffffff168373ffffffffffffffffffffffffffffffffffffffff1603610f25576040517f08c379a0000000000000000000000000000000000000000000000000000000008152600401610f1c90611e77565b60405180910390fd5b600073ffffffffffffffffffffffffffffffffffffffff168273ffffffffffffffffffffffffffffffffffffffff1603610f94576040517f08c379a0000000000000000000000000000000000000000000000000000000008152600401610f8b90611f09565b60405180910390fd5b80600160008573ffffffffffffffffffffffffffffffffffffffff1673ffffffffffffffffffffffffffffffffffffffff16815260200190815260200160002060008473ffffffffffffffffffffffffffffffffffffffff1673ffffffffffffffffffffffffffffffffffffffff168152602001908152602001600020819055508173ffffffffffffffffffffffffffffffffffffffff168373ffffffffffffffffffffffffffffffffffffffff167f8c5be1e5ebec7d5bd14f71427d1e84f3dd0314c0f7b2291e5b200ac8c7c3b92583604051611072919061180d565b60405180910390a3505050565b600073ffffffffffffffffffffffffffffffffffffffff168373ffffffffffffffffffffffffffffffffffffffff16036110ee576040517f08c379a00000000000000000000000000000000000000000000000000000000081526004016110e590611f9b565b60405180910390fd5b600073ffffffffffffffffffffffffffffffffffffffff168273ffffffffffffffffffffffffffffffffffffffff160361115d576040517f08c379a00000000000000000000000000000000000000000000000000000000081526004016111549061202d565b60405180910390fd5b611168838383611633565b60008060008573ffffffffffffffffffffffffffffffffffffffff1673ffffffffffffffffffffffffffffffffffffffff168152602001908152602001600020549050818110156111ee576040517f08c379a00000000000000000000000000000000000000000000000000000000081526004016111e5906120bf565b60405180910390fd5b8181036000808673ffffffffffffffffffffffffffffffffffffffff1673ffffffffffffffffffffffffffffffffffffffff16815260200190815260200160002081905550816000808573ffffffffffffffffffffffffffffffffffffffff1673ffffffffffffffffffffffffffffffffffffffff16815260200190815260200160002060008282546112819190611c41565b925050819055508273ffffffffffffffffffffffffffffffffffffffff168473ffffffffffffffffffffffffffffffffffffffff167fddf252ad1be2c89b69c2b068fc378daa952ba7f163c4a11628f55a4df523b3ef846040516112e5919061180d565b60405180910390a36112f8848484611638565b50505050565b600073ffffffffffffffffffffffffffffffffffffffff168273ffffffffffffffffffffffffffffffffffffffff160361136d576040517f08c379a00000000000000000000000000000000000000000000000000000000081526004016113649061212b565b60405180910390fd5b61137960008383611633565b806002600082825461138b9190611c41565b92505081905550806000808473ffffffffffffffffffffffffffffffffffffffff1673ffffffffffffffffffffffffffffffffffffffff16815260200190815260200160002060008282546113e09190611c41565b925050819055508173ffffffffffffffffffffffffffffffffffffffff16600073ffffffffffffffffffffffffffffffffffffffff167fddf252ad1be2c89b69c2b068fc378daa952ba7f163c4a11628f55a4df523b3ef83604051611445919061180d565b60405180910390a361145960008383611638565b5050565b600073ffffffffffffffffffffffffffffffffffffffff168273ffffffffffffffffffffffffffffffffffffffff16036114cc576040517f08c379a00000000000000000000000000000000000000000000000000000000081526004016114c3906121bd565b60405180910390fd5b6114d882600083611633565b60008060008473ffffffffffffffffffffffffffffffffffffffff1673ffffffffffffffffffffffffffffffffffffffff1681526020019081526020016000205490508181101561155e576040517f08c379a00000000000000000000000000000000000000000000000000000000081526004016115559061224f565b60405180910390fd5b8181036000808573ffffffffffffffffffffffffffffffffffffffff1673ffffffffffffffffffffffffffffffffffffffff1681526020019081526020016000208190555081600260008282546115b5919061226f565b92505081905550600073ffffffffffffffffffffffffffffffffffffffff168373ffffffffffffffffffffffffffffffffffffffff167fddf252ad1be2c89b69c2b068fc378daa952ba7f163c4a11628f55a4df523b3ef8460405161161a919061180d565b60405180910390a361162e83600084611638565b505050565b505050565b505050565b600081519050919050565b600082825260208201905092915050565b60005b8381101561167757808201518184015260208101905061165c565b60008484015250505050565b6000601f19601f8301169050919050565b600061169f8261163d565b6116a98185611648565b93506116b9818560208601611659565b6116c281611683565b840191505092915050565b600060208201905081810360008301526116e78184611694565b905092915050565b600080fd5b600073ffffffffffffffffffffffffffffffffffffffff82169050919050565b600061171f826116f4565b9050919050565b61172f81611714565b811461173a57600080fd5b50565b60008135905061174c81611726565b92915050565b6000819050919050565b61176581611752565b811461177057600080fd5b50565b6000813590506117828161175c565b92915050565b6000806040838503121561179f5761179e6116ef565b5b60006117ad8582860161173d565b92505060206117be85828601611773565b9150509250929050565b60008115159050919050565b6117dd816117c8565b82525050565b60006020820190506117f860008301846117d4565b92915050565b61180781611752565b82525050565b600060208201905061182260008301846117fe565b92915050565b600080600060608486031215611841576118406116ef565b5b600061184f8682870161173d565b93505060206118608682870161173d565b925050604061187186828701611773565b9150509250925092565b600060ff82169050919050565b6118918161187b565b82525050565b60006020820190506118ac6000830184611888565b92915050565b6000602082840312156118c8576118c76116ef565b5b60006118d684828501611773565b91505092915050565b6000602082840312156118f5576118f46116ef565b5b60006119038482850161173d565b91505092915050565b61191581611714565b82525050565b6000602082019050611930600083018461190c565b92915050565b6000806040838503121561194d5761194c6116ef565b5b600061195b8582860161173d565b925050602061196c8582860161173d565b9150509250929050565b7f4e487b7100000000000000000000000000000000000000000000000000000000600052602260045260246000fd5b600060028204905060018216806119bd57607f821691505b6020821081036119d0576119cf611976565b5b50919050565b7f45524332303a207472616e7366657220616d6f756e742065786365656473206160008201527f6c6c6f77616e6365000000000000000000000000000000000000000000000000602082015250565b6000611a32602883611648565b9150611a3d826119d6565b604082019050919050565b60006020820190508181036000830152611a6181611a25565b9050919050565b600069ffffffffffffffffffff82169050919050565b611a8781611a68565b8114611a9257600080fd5b50565b600081519050611aa481611a7e565b92915050565b6000819050919050565b611abd81611aaa565b8114611ac857600080fd5b50565b600081519050611ada81611ab4565b92915050565b600081519050611aef8161175c565b92915050565b600080600080600060a08688031215611b1157611b106116ef565b5b6000611b1f88828901611a95565b9550506020611b3088828901611acb565b9450506040611b4188828901611ae0565b9350506060611b5288828901611ae0565b9250506080611b6388828901611a95565b9150509295509295909350565b7f4e487b7100000000000000000000000000000000000000000000000000000000600052601160045260246000fd5b6000611baa82611752565b9150611bb583611752565b9250828202611bc381611752565b91508282048414831517611bda57611bd9611b70565b5b5092915050565b7f4e487b7100000000000000000000000000000000000000000000000000000000600052601260045260246000fd5b6000611c1b82611752565b9150611c2683611752565b925082611c3657611c35611be1565b5b828204905092915050565b6000611c4c82611752565b9150611c5783611752565b9250828201905080821115611c6f57611c6e611b70565b5b92915050565b7f4f6e6c7920746865206f776e65722063616e206d696e7420746f6b656e730000600082015250565b6000611cab601e83611648565b9150611cb682611c75565b602082019050919050565b60006020820190508181036000830152611cda81611c9e565b9050919050565b7f4e6f7420656e6f7567682045544820696e20636f6e747261637420746f20646f60008201527f2073656c6c000000000000000000000000000000000000000000000000000000602082015250565b6000611d3d602583611648565b9150611d4882611ce1565b604082019050919050565b60006020820190508181036000830152611d6c81611d30565b9050919050565b7f45524332303a2064656372656173656420616c6c6f77616e63652062656c6f7760008201527f207a65726f000000000000000000000000000000000000000000000000000000602082015250565b6000611dcf602583611648565b9150611dda82611d73565b604082019050919050565b60006020820190508181036000830152611dfe81611dc2565b9050919050565b7f45524332303a20617070726f76652066726f6d20746865207a65726f2061646460008201527f7265737300000000000000000000000000000000000000000000000000000000602082015250565b6000611e61602483611648565b9150611e6c82611e05565b604082019050919050565b60006020820190508181036000830152611e9081611e54565b9050919050565b7f45524332303a20617070726f766520746f20746865207a65726f20616464726560008201527f7373000000000000000000000000000000000000000000000000000000000000602082015250565b6000611ef3602283611648565b9150611efe82611e97565b604082019050919050565b60006020820190508181036000830152611f2281611ee6565b9050919050565b7f45524332303a207472616e736665722066726f6d20746865207a65726f20616460008201527f6472657373000000000000000000000000000000000000000000000000000000602082015250565b6000611f85602583611648565b9150611f9082611f29565b604082019050919050565b60006020820190508181036000830152611fb481611f78565b9050919050565b7f45524332303a207472616e7366657220746f20746865207a65726f206164647260008201527f6573730000000000000000000000000000000000000000000000000000000000602082015250565b6000612017602383611648565b915061202282611fbb565b604082019050919050565b600060208201905081810360008301526120468161200a565b9050919050565b7f45524332303a207472616e7366657220616d6f756e742065786365656473206260008201527f616c616e63650000000000000000000000000000000000000000000000000000602082015250565b60006120a9602683611648565b91506120b48261204d565b604082019050919050565b600060208201905081810360008301526120d88161209c565b9050919050565b7f45524332303a206d696e7420746f20746865207a65726f206164647265737300600082015250565b6000612115601f83611648565b9150612120826120df565b602082019050919050565b6000602082019050818103600083015261214481612108565b9050919050565b7f45524332303a206275726e2066726f6d20746865207a65726f2061646472657360008201527f7300000000000000000000000000000000000000000000000000000000000000602082015250565b60006121a7602183611648565b91506121b28261214b565b604082019050919050565b600060208201905081810360008301526121d68161219a565b9050919050565b7f45524332303a206275726e20616d6f756e7420657863656564732062616c616e60008201527f6365000000000000000000000000000000000000000000000000000000000000602082015250565b6000612239602283611648565b9150612244826121dd565b604082019050919050565b600060208201905081810360008301526122688161222c565b9050919050565b600061227a82611752565b915061228583611752565b925082820390508181111561229d5761229c611b70565b5b9291505056fea26469706673582212203958848c66c9fcd30fbd0556f91d22d6f3944a989b92cf1253657926d0c3972e64736f6c63430008130033",
  "immutableReferences": {},
  "source": "// SPDX-License-Identifier: MIT\npragma solidity <=0.8.22;\n\nimport \"@chainlink/contracts/src/v0.8/interfaces/AggregatorV3Interface.sol\";\nimport \"@openzeppelin/contracts/token/ERC20/ERC20.sol\";\n\ncontract GoldToken is ERC20 {\n    AggregatorV3Interface internal goldUsdFeed;\n    AggregatorV3Interface internal ethUsdFeed;\n    address public owner;\n\n    constructor() ERC20(\"Gold Token\", \"GLD\") {\n        goldUsdFeed = AggregatorV3Interface(0xC5981F461d74c46eB4b0CF3f4Ec79f025573B0Ea);\n        ethUsdFeed = AggregatorV3Interface(0x694AA1769357215DE4FAC081bf1f309aDC325306);\n        owner = msg.sender;\n    }\n\n    function getLatestGoldPrice() public view returns (uint256) {\n        (,int goldUsdPrice,,,) = goldUsdFeed.latestRoundData();\n        (,int ethUsdPrice,,,) = ethUsdFeed.latestRoundData();\n\n        return (uint256(goldUsdPrice) * 10**18) / uint256(ethUsdPrice);\n    }\n\n    function getLatestGoldUsdPrice() public view returns (uint256) {\n        (,int goldUsdPrice,,,) = goldUsdFeed.latestRoundData();\n\n        return uint256(goldUsdPrice);\n    }\n\n    function getLatestEthUsdPrice() public view returns (uint256) {\n        (,int ethUsdPrice,,,) = ethUsdFeed.latestRoundData();\n\n        return uint256(ethUsdPrice);\n    }\n\n    function calculateGoldTokenAmount(uint256 _sepoliaEthAmount) public view returns (uint256) {\n        uint256 goldPrice = getLatestGoldPrice();\n        return (_sepoliaEthAmount * 10**18) / goldPrice;\n    }\n\n    function buyGoldTokens() public payable {\n        uint256 goldTokens = calculateGoldTokenAmount(msg.value);\n\n        // Mint gold tokens\n        _mint(msg.sender, goldTokens);\n    }\n\n    function mint(address to, uint256 _amount) public {\n        require(msg.sender == owner, \"Only the owner can mint tokens\");\n        _mint(to, _amount);\n    }\n\n    function contractBalance() public view returns(uint256){\n        return (address(this).balance);\n    }\n\n    function calculateSellGoldToken(uint256 _goldTokenAmount) public view returns (uint256) {\n        uint256 goldPrice = getLatestGoldPrice();\n        uint256 ethAmount = (_goldTokenAmount * goldPrice) / 10**18;\n\n        return ethAmount;\n    }\n\n    function sellGoldToken(uint256 _goldTokenAmount) public payable {\n        uint256 goldPrice = getLatestGoldPrice();\n        uint256 ethAmount = (_goldTokenAmount * goldPrice) / 10**18;\n\n\n        // Check contract has enough balance\n        require(address(this).balance >= ethAmount, \"Not enough ETH in contract to do sell\");\n\n        // Burn the tokens from the sender\n        _burn(msg.sender, _goldTokenAmount);\n\n        payable(msg.sender).transfer(ethAmount);\n    }\n}",
  "sourcePath": "/Users/webskitters/webskitters-blockchain-server/contracts/GoldToken.sol",
  "compiler": {
    "name": "solc",
    "version": "0.8.19+commit.7dd6d404.Emscripten.clang"
  },
  "schemaVersion": "3.4.16",
  "updatedAt": "2024-01-12T11:38:00.839Z",
  "networkType": "ethereum",
  "devdoc": {
    "events": {
      "Approval(address,address,uint256)": {
        "details": "Emitted when the allowance of a `spender` for an `owner` is set by a call to {approve}. `value` is the new allowance."
      },
      "Transfer(address,address,uint256)": {
        "details": "Emitted when `value` tokens are moved from one account (`from`) to another (`to`). Note that `value` may be zero."
      }
    },
    "kind": "dev",
    "methods": {
      "allowance(address,address)": {
        "details": "See {IERC20-allowance}."
      },
      "approve(address,uint256)": {
        "details": "See {IERC20-approve}. Requirements: - `spender` cannot be the zero address."
      },
      "balanceOf(address)": {
        "details": "See {IERC20-balanceOf}."
      },
      "decimals()": {
        "details": "Returns the number of decimals used to get its user representation. For example, if `decimals` equals `2`, a balance of `505` tokens should be displayed to a user as `5.05` (`505 / 10 ** 2`). Tokens usually opt for a value of 18, imitating the relationship between Ether and Wei. This is the value {ERC20} uses, unless this function is overridden; NOTE: This information is only used for _display_ purposes: it in no way affects any of the arithmetic of the contract, including {IERC20-balanceOf} and {IERC20-transfer}."
      },
      "decreaseAllowance(address,uint256)": {
        "details": "Atomically decreases the allowance granted to `spender` by the caller. This is an alternative to {approve} that can be used as a mitigation for problems described in {IERC20-approve}. Emits an {Approval} event indicating the updated allowance. Requirements: - `spender` cannot be the zero address. - `spender` must have allowance for the caller of at least `subtractedValue`."
      },
      "increaseAllowance(address,uint256)": {
        "details": "Atomically increases the allowance granted to `spender` by the caller. This is an alternative to {approve} that can be used as a mitigation for problems described in {IERC20-approve}. Emits an {Approval} event indicating the updated allowance. Requirements: - `spender` cannot be the zero address."
      },
      "name()": {
        "details": "Returns the name of the token."
      },
      "symbol()": {
        "details": "Returns the symbol of the token, usually a shorter version of the name."
      },
      "totalSupply()": {
        "details": "See {IERC20-totalSupply}."
      },
      "transfer(address,uint256)": {
        "details": "See {IERC20-transfer}. Requirements: - `recipient` cannot be the zero address. - the caller must have a balance of at least `amount`."
      },
      "transferFrom(address,address,uint256)": {
        "details": "See {IERC20-transferFrom}. Emits an {Approval} event indicating the updated allowance. This is not required by the EIP. See the note at the beginning of {ERC20}. Requirements: - `sender` and `recipient` cannot be the zero address. - `sender` must have a balance of at least `amount`. - the caller must have allowance for ``sender``'s tokens of at least `amount`."
      }
    },
    "version": 1
  },
  "userdoc": {
    "kind": "user",
    "methods": {},
    "version": 1
  }
}