{
  "contractName": "Oracle",
  "abi": [
    {
      "inputs": [],
      "stateMutability": "nonpayable",
      "type": "constructor"
    },
    {
      "inputs": [],
      "name": "getChainlinkDataFeedLatestAnswer",
      "outputs": [
        {
          "internalType": "int256",
          "name": "",
          "type": "int256"
        }
      ],
      "stateMutability": "view",
      "type": "function",
      "constant": true
    }
  ],
  "bytecode": "0x608060405234801561001057600080fd5b5073c5981f461d74c46eb4b0cf3f4ec79f025573b0ea6000806101000a81548173ffffffffffffffffffffffffffffffffffffffff021916908373ffffffffffffffffffffffffffffffffffffffff16021790555061027b806100746000396000f3fe608060405234801561001057600080fd5b506004361061002b5760003560e01c8063bea4dfb514610030575b600080fd5b61003861004e565b6040516100459190610106565b60405180910390f35b60008060008054906101000a900473ffffffffffffffffffffffffffffffffffffffff1673ffffffffffffffffffffffffffffffffffffffff1663feaf968c6040518163ffffffff1660e01b815260040160a060405180830381865afa1580156100bc573d6000803e3d6000fd5b505050506040513d601f19601f820116820180604052508101906100e091906101ca565b5050509150508091505090565b6000819050919050565b610100816100ed565b82525050565b600060208201905061011b60008301846100f7565b92915050565b600080fd5b600069ffffffffffffffffffff82169050919050565b61014581610126565b811461015057600080fd5b50565b6000815190506101628161013c565b92915050565b610171816100ed565b811461017c57600080fd5b50565b60008151905061018e81610168565b92915050565b6000819050919050565b6101a781610194565b81146101b257600080fd5b50565b6000815190506101c48161019e565b92915050565b600080600080600060a086880312156101e6576101e5610121565b5b60006101f488828901610153565b95505060206102058882890161017f565b9450506040610216888289016101b5565b9350506060610227888289016101b5565b925050608061023888828901610153565b915050929550929590935056fea26469706673582212206c4f169e6b02cf05a4954ee5fedc67d72cf76c994c0df9ff951fcb42b31f611a64736f6c63430008130033",
  "immutableReferences": {},
  "source": "// SPDX-License-Identifier: MIT\npragma solidity <=0.8.19;\n\nimport \"@chainlink/contracts/src/v0.8/interfaces/AggregatorV3Interface.sol\";\n\ncontract Oracle {\n    AggregatorV3Interface internal priceFeed;\n\n    /**\n     * Network: Sepolia\n     * Aggregator: BTC/USD\n     * Address: 0x1b44F3514812d835EB1BDB0acB33d3fA3351Ee43\n     */\n    constructor() {\n            priceFeed = AggregatorV3Interface(0xC5981F461d74c46eB4b0CF3f4Ec79f025573B0Ea);\n    }\n\n   function getChainlinkDataFeedLatestAnswer() public view returns (int) {\n        // prettier-ignore\n        (\n            /* uint80 roundID */,\n            int answer,\n            /*uint startedAt*/,\n            /*uint timeStamp*/,\n            /*uint80 answeredInRound*/\n        ) = priceFeed.latestRoundData();\n        return answer;\n    }\n}\n",
  "sourcePath": "/Users/webskitters/webskitters-blockchain-server/contracts/Oracle.sol",
  "compiler": {
    "name": "solc",
    "version": "0.8.19+commit.7dd6d404.Emscripten.clang"
  },
  "schemaVersion": "3.4.16",
  "updatedAt": "2024-01-12T11:38:00.832Z",
  "networkType": "ethereum",
  "devdoc": {
    "kind": "dev",
    "methods": {},
    "version": 1
  },
  "userdoc": {
    "kind": "user",
    "methods": {
      "constructor": {
        "notice": "Network: Sepolia Aggregator: BTC/USD Address: 0x1b44F3514812d835EB1BDB0acB33d3fA3351Ee43"
      }
    },
    "version": 1
  }
}